:100000000C9475000C949D000C949D000C949D0024
:100010000C949D000C949D000C949D000C949D00EC
:100020000C949D000C949D000C949D000C949D00DC
:100030000C949D000C949D000C949D000C949D00CC
:100040000C9489150C949D000C94B9170C940B1802
:100050000C949D000C949D000C949D000C949D00AC
:100060000C94070F0C949D004000FF000000FF005F
:10007000A000FF006000FF00C000FF00FF000000C4
:100080004265726B616E6100000000002400270071
:100090002A0000000000250028002B0000000000BE
:1000A00023002600290004040404040404040202BA
:1000B00002020202030303030303010204081020E7
:1000C00040800102040810200102040810200000F2
:1000D0000007000201000003040600000000000009
:1000E00000000201C50CA30DF31811241FBECFEFB1
:1000F000D8E0DEBFCDBF12E0A0E0B1E0E6E6F9E374
:1001000002C005900D92A630B107D9F713E0A6E022
:10011000B2E001C01D92AF3FB107E1F710E0CAEEB7
:10012000D0E004C02297FE010E94AD1CC23ED10760
:10013000C9F70E944A190C94B11C0C94000020913C
:100140004602309147022730310564F481E0809304
:10015000C201109242021092430230934502209352
:1001600044020BC02730310541F41092C20181E0F6
:10017000809342021092430208952830310539F4E9
:100180001092C2011092420281E0809343020895CE
:10019000239A08951F93CF93DF93382F492F80918F
:1001A0006D028F5F877080936D0280FD02C020E03A
:1001B00001C020E881FD206482FD2062122F105FC3
:1001C000832F942F9C01F901C0E0D0E06285662363
:1001D00031F080E091E070E00E94471C6F5F678320
:1001E000212F269F212D11242483662311F0615095
:1001F000678321963196C330D10541F7DF91CF91C6
:100200001F910895EF92FF920F931F936091A901A0
:1002100070E0882777FD8095982F0E94111B7B0145
:100220008C0123EC35EF48E25FE30E94C51B0E947E
:10023000E31A60930602C801B70123EC35EF48EAE0
:100240005EE30E94C51B0E94E31A6093070280913F
:1002500046029091470290934902809348029093FE
:100260004B0280934A0280E592E00E948E121F9119
:100270000F91FF90EF900895EF92FF920F931F93CD
:10028000DF93CF9300D000D000D0CDB7DEB7609120
:100290003C0270913D0280913E0290913F0220917C
:1002A00038023091390240913A0250913B02621B70
:1002B000730B840B950B0E94111B7B018C016091C9
:1002C000A5017091A6018091A7019091A8010E94BB
:1002D000111B20E030E040E05FE30E94C51B9B0162
:1002E000AC01C801B7010E94C11B1816A4F560E05B
:1002F00070E080E090E00E94051680913C029091B1
:100300003D02A0913E02B0913F028093380290934B
:100310003902A0933A02B0933B02E090D301F090EF
:10032000D4018091C40181508093C4018F5F90916A
:10033000A90189838FEF8A839B838E010C5F1F4FF6
:10034000CE010196B8010E94C90CC701B801F7019E
:1003500040810E94350C26960FB6F894DEBF0FBE82
:10036000CDBFCF91DF911F910F91FF90EF90089536
:10037000EF92FF920F931F93DF93CF9300D00F92D2
:10038000CDB7DEB760913C0270913D0280913E0294
:1003900090913F02209138023091390240913A0207
:1003A00050913B02621B730B840B950B0E94111B37
:1003B0007B018C016091A5017091A6018091A7013C
:1003C0009091A8010E94111B2AE939E949E15EE3F5
:1003D0000E94C51B9B01AC01C801B7010E94C11B53
:1003E00018160CF046C060E070E080E090E00E94DB
:1003F000051680913C0290913D02A0913E02B09181
:100400003F028093380290933902A0933A02B0934E
:100410003B0280912E0290912F026CE070E00E94CE
:10042000471CBC01660F771F680F791F685F7D4FFF
:100430008091C50181508093C5018F5F9091A90182
:1004400089838FEF8A839B83CE0101960E94C90C1A
:10045000E091D301F091D401CF0160810E94A20B01
:1004600080912E0290912F02019690932F028093FB
:100470002E020F900F900F90CF91DF911F910F914F
:10048000FF90EF9008950F931F93DF93CF9300D0C9
:100490000F92CDB7DEB780912E0290912F020C966D
:1004A0006CE070E00E94471CBC01660F771F680F6C
:1004B000791F08E012E0600F711F90913402809163
:1004C000320289839A831B82CE0101960E94C90C55
:1004D000E0913002F091310280912E0290912F0232
:1004E0000C966CE070E00E94471CDF01AA0FBB1F56
:1004F000AE0FBF1FA00FB11FFC01EE0FFF1FE80FD3
:10050000F91FE00FF11F80818C93818111968C93EC
:100510001197828112968C93E091D301F091D401CE
:10052000CF0160810E94A20B80912E0290912F0238
:10053000019790932F0280932E0280913002909128
:1005400031020196909331028093300280914002F3
:1005500090914102019690934102809340020F9046
:100560000F900F90CF91DF911F910F910895DF931E
:10057000CF93CDB7DEB729970FB6F894DEBF0FBE85
:10058000CDBF809140029091410207970CF042C08C
:1005900080912E0290912F020C966CE070E00E94E8
:1005A000471CBC01660F771F680F791F685F7D4F7E
:1005B00090913402209107028091320289839A83BC
:1005C0002B83CE0101960E94C90CE0913002F0917C
:1005D000310280912E0290912F020C966CE070E017
:1005E0000E94471C9C01DF01AA0FBB1FAE0FBF1F5B
:1005F000A85FBD4FF901EE0FFF1FE20FF31FE85F89
:10060000FD4F80818C93818111968C93119782810B
:1006100012968C9380914002909141020297069726
:1006200008F042C080912E0290912F020D966CE04E
:1006300070E00E94471CBC01660F771F680F791F8E
:10064000685F7D4F909134022091060280913202C2
:100650008C839D832E83CE0104960E94C90CE09169
:100660003002F0913102319780912E0290912F0249
:100670000D966CE070E00E94471CDF01AA0FBB1FC3
:10068000AE0FBF1FA85FBD4FFC01EE0FFF1FE80FAD
:10069000F91FE85FFD4F80818C93818111968C93C7
:1006A0001197828112968C93809140029091410221
:1006B0000397069708F043C080912E0290912F0275
:1006C0000E966CE070E00E94471CBC01660F771F1D
:1006D000680F791F685F7D4F909134022091A901C6
:1006E000809132028F8398872987CE0107960E94D6
:1006F000C90CE0913002F0913102329780912E02C4
:1007000090912F020E966CE070E00E94471C9C01B5
:10071000DF01AA0FBB1FAE0FBF1FA85FBD4FF901BE
:10072000EE0FFF1FE20FF31FE85FFD4F80818C93F8
:10073000818111968C931197828112968C93E0910E
:10074000D301F091D401CF0160810E94A20B80916E
:100750002E0290912F02019790932F0280932E02E8
:1007600080913002909131020196909331028093F2
:100770003002809140029091410201969093410293
:100780008093400229960FB6F894DEBF0FBECDBF0E
:10079000CF91DF9108952091440230914502263097
:1007A0003105BCF4220F331F220F331FF901E85922
:1007B000FF4F85919591A591B491909333028093C9
:1007C0003202F901E659FF4F85919591A591B491B7
:1007D0000BC02630310561F480916C0280933202A7
:1007E000109233028FEF90E09093350280933402A1
:1007F00080913C0290913D02A0913E02B0913F0257
:10080000209138023091390240913A0250913B02D6
:10081000821B930BA40BB50B2091A5013091A6016F
:100820004091A7015091A801281739074A075B0793
:100830000CF06FC060E070E080E090E00E94051670
:1008400080913C0290913D02A0913E02B0913F0206
:100850008093380290933902A0933A02B0933B02FE
:100860008091400290914102009789F421E030E0AC
:1008700030932F0220932E0282E090E09093310279
:1008800080933002309341022093400208958130DA
:100890009105A9F08230910591F08330910579F0AE
:1008A0008430910561F08530910549F086309105DD
:1008B00031F08730910519F08830910519F40E94C4
:1008C000B70208958930910569F481E090E0909332
:1008D0002F0280932E0282E090E090933102809369
:1008E00030020CC08A30910549F08B30910531F00F
:1008F0008C30910519F08D30910519F40E94430256
:1009000008950E9731F40E94430210924102109212
:10091000400208950F931F938C01FC01608185E0D4
:1009200070E00E94C516F801618186E070E00E94C7
:10093000C516F801628183E070E00E94C5161F9120
:100940000F9108951F93DF93CF93CDB7DEB72C9708
:100950000FB6F894DEBF0FBECDBF1FEF19831A820A
:100960001B82CE0101960E948A0464EF71E080E050
:1009700090E00E9405161C8280E88D831E82CE01C5
:1009800004960E948A0464EF71E080E090E00E9487
:1009900005161F8218861987CE0107960E948A04C1
:1009A00064EF71E080E090E00E9405161A861B86D5
:1009B0001C86CE010A960E948A0464EF71E080E0F2
:1009C00090E00E9405162C960FB6F894DEBF0FBE7D
:1009D000CDBFCF91DF911F910895AF92BF92CF927B
:1009E000DF92EF92FF920F931F93DF93CF9300D08C
:1009F00000D000D0CDB7DEB78EE00E94A316909352
:100A00002D0280932C0200D000D0AA2797FDA0953C
:100A1000BA2F2FEF30E040E050E0EDB7FEB7218372
:100A2000328343835483BC01CD0120E030E040E0B9
:100A300050E0EFEFEE2EE3E0FE2E012D112DAA2463
:100A4000BB2465010E949A1A60936C029091A901DF
:100A500069838FEF8A839B830F900F900F900F9085
:100A60008E010C5F1F4FCE010196B8010E94C90C88
:100A7000C8010E948A0480E592E060E041E00E94A3
:100A80007414E0914602F0914702EE0FFF1FE65505
:100A9000FE4F6081718180E592E00E94971A0E946A
:100AA000D11520914C0230914D0240914E0250914F
:100AB0004F02621B730B840B950B61517742804090
:100AC000904028F180914602909147020997FCF4EA
:100AD0008091C301882379F480E592E060E040E0F2
:100AE0000E94741480E592E060E071E00E94971A21
:100AF00081E08093C30180E592E060E040E00E94E5
:100B0000741480E592E061E171E00E94971A80E53B
:100B100092E00E94AF12182F0E94D11520914C0232
:100B200030914D0240914E0250914F02621B730B67
:100B3000840B950B6E5471408040904008F43DC189
:100B4000112309F43AC180E592E00E94A31480E5E4
:100B500092E060E040E00E94741413FF29C080918D
:100B6000480290914902009721F48091C001909130
:100B7000C101019790934902809348020E94D115C8
:100B800060934C0270934D0280934E0290934F02FB
:100B90001092C301E0914802F0914902EE0FFF1F4D
:100BA000E655FE4F6081718180E592E00E94971AC0
:100BB00012FF31C020914802309149028091C0015A
:100BC0009091C10101972817390729F41092490221
:100BD0001092480206C02F5F3F4F30934902209386
:100BE00048020E94D11560934C0270934D0280938D
:100BF0004E0290934F021092C301E0914802F0918F
:100C00004902EE0FFF1FE655FE4F6081718180E5BE
:100C100092E00E94971A80914602909147020997AC
:100C200009F065C080E592E060E040E00E94741445
:100C300014FF1FC04091A5015091A6016091A7012A
:100C40007091A801433351056105710594F0425339
:100C50005040604070404093A5015093A6016093BE
:100C6000A7017093A80180E592E02AE030E00E949D
:100C7000571A11FF22C04091A5015091A601609121
:100C8000A7017091A801483883E1580780E0680700
:100C900080E0780794F44E5C5F4F6F4F7F4F409336
:100CA000A5015093A6016093A7017093A80180E568
:100CB00092E02AE030E00E94571A10FF18C080919D
:100CC0004A0290914B02909347028093460280E53E
:100CD00092E00E94A31480E592E060E040E00E9470
:100CE000741480E592E061E171E00E94971A8091AE
:100CF0004602909147020A97F1F580E592E060E0A4
:100D000040E00E94741414FF0DC06091A901693481
:100D100048F064506093A90180E592E04AE050E019
:100D20000E94451A11FF0DC06091A9016C3F48F463
:100D30006C5F6093A90180E592E04AE050E00E9478
:100D4000451A10FF18C080914A0290914B0290936F
:100D500047028093460280E592E00E94A31480E55A
:100D600092E060E040E00E94741480E592E061E16E
:100D700071E00E94971A10FF20C080914602909166
:100D8000470290934B0280934A02809148029091CF
:100D90004902909347028093460280E592E00E94C8
:100DA000A31480E592E060E040E00E94741480E5C6
:100DB00092E061E171E00E94971A0E949F000E94F8
:100DC000D11560933C0270933D0280933E02909354
:100DD0003F028091C201882311F00E94CB038091D1
:100DE0004202882311F00E94B801809143028823B7
:100DF00011F00E943C0126960FB6F894DEBF0FBE9C
:100E0000CDBFCF91DF911F910F91FF90EF90DF90B9
:100E1000CF90BF90AF900895EF92FF920F931F93E2
:100E2000CF93DF93EC018B017A018091F703882344
:100E300009F04DC087EF93E00E945B19892B09F4FC
:100E400046C01092E9031092E8038FEF8093EC0301
:100E50008093ED038093EE038093EF038093F00380
:100E60008093F10381E08093F2031092F4031092D7
:100E7000F3031092EB031092EA0380916F029091BA
:100E80007002892B31F486EE93E090937002809388
:100E90006F02E0917102F0917202309721F086EEBC
:100EA00093E09583848386EE93E09093720280931F
:100EB00071021092F6031092F5038BEC91E090937F
:100EC000E7038093E60387EF93E00E94651986EEBF
:100ED00093E0BE01A80197010E94710BDF91CF91B1
:100EE0001F910F91FF90EF9008950F931F93DF9341
:100EF000CF9300D00F92CDB7DEB768EB7BE080E0F8
:100F000090E00E94051600E512E0C80160E142E0B1
:100F100020E00E94AB14C80160E870E00E949319C1
:100F2000C80167E00E94EB1208E012E0C8016CE023
:100F300070E040E050E00E940C0719821A821B8288
:100F4000C8016CE070E0AE014F5F5F4F0E945B0B29
:100F5000E091D301F091D401CF0160810E94A20BF6
:100F600068EC70E080E090E00E94051685E061E0AA
:100F70000E94251786E061E00E94251783E061E06A
:100F80000E9425170E94A2040E94D1156093380286
:100F90007093390280933A0290933B020E94D115DC
:100FA00060934C0270934D0280934E0290934F02D7
:100FB0001092410210924002209136023091370285
:100FC000220F331F220F331F48E650E0FA01E20FD1
:100FD000F31F85919591A591B491909333028093DD
:100FE0003202F9013296E40FF51F85919591A59192
:100FF000B49190933502809334020F900F900F902C
:10100000CF91DF911F910F9108954F925F926F9250
:101010007F928F929F92AF92BF92CF92DF92EF9288
:10102000FF920F931F93DF93CF93CDB7DEB72E9729
:101030000FB6F894DEBF0FBECDBF5C014A01F901C7
:101040001E2DDC011C969C917A8369835C834B8303
:1010500080818B8781818C8782818D87913029F473
:10106000CE0101960E94CA0006C01A86198618860B
:101070001F821E821D8289819A81810F911D9A8310
:101080008983002311F480E002C0812F8D5F8E8759
:101090000E94DF15F50127853089621B730B6233CF
:1010A0007105B0F3F89439814A81C5B0F8E0CF2AD0
:1010B000D5B007EF402ED420D5B879858E81781B26
:1010C0007E83E981FA818181882311F420E004C0C4
:1010D000282F270F08F42FEF832F942FFC01FC8477
:1010E000622F2F2D629F612D11241E85AB81BC8143
:1010F000ED840B859F818D8179846A84588420E0FA
:1011000050E040E030E05AC2472C471A742D462C7C
:10111000491A942D452C481A842D1197C5B800C042
:1011200000C000C000C000C067FFD5B832814427AE
:10113000889400C000C000C0002CD5B83111390F10
:1011400000C000C0002C00C000C0C5B800C000C076
:1011500000C000C000C066FFD5B808F43FEF889417
:1011600000C000C000C000C0D5B8E0FC430F00C004
:1011700000C0002C00C000C0C5B800C000C000C046
:1011800000C000C065FFD5B847958894E1FC430FC7
:1011900000C000C000C0002CD5B84795889400C09E
:1011A00000C0002C00C000C0C5B800C000C000C016
:1011B00000C000C064FFD5B8E2FC430F4795889497
:1011C00000C000C000C0002CD5B8E3FC430F00C035
:1011D00000C0002C00C000C0C5B800C000C000C0E6
:1011E00000C000C063FFD5B847958894E4FC430F66
:1011F00000C000C000C0002CD5B84795889400C03E
:1012000000C0002C00C000C0C5B800C000C000C0B5
:1012100000C000C062FFD5B8E5FC430F4795889435
:1012200000C000C000C0002CD5B8E6FC430F00C0D1
:1012300000C0002C00C000C0C5B800C000C000C085
:1012400000C000C061FFD5B847958894E7FC430F04
:1012500000C000C000C0002CD5B84795889400C0DD
:1012600000C0002C00C000C0C5B800C000C000C055
:1012700000C000C060FFD5B800C000C0002C20F046
:1012800021E02A95F1F721F021E02A95F1F7089461
:10129000D5B800C000C0002C20F021E02A95F1F75D
:1012A00021F021E02A95F1F70894C5B800C000C0EC
:1012B00000C000C000C047FFD5B8308155278894D2
:1012C00000C000C000C0002CD5B83111380F00C0DC
:1012D00000C0002C00C000C0C5B800C000C000C0E5
:1012E00000C000C046FFD5B808F43FEF889400C0A6
:1012F00000C000C000C0D5B800FD530F00C000C042
:10130000002C00C000C0C5B800C000C000C000C0B4
:1013100000C045FFD5B85795889401FD530F00C014
:1013200000C000C0002CD5B85795889400C000C0FC
:10133000002C00C000C0C5B800C000C000C000C084
:1013400000C044FFD5B802FD530F5795889400C0E4
:1013500000C000C0002CD5B803FD530F00C000C072
:10136000002C00C000C0C5B800C000C000C000C054
:1013700000C043FFD5B85795889404FD530F00C0B3
:1013800000C000C0002CD5B85795889400C000C09C
:10139000002C00C000C0C5B800C000C000C000C024
:1013A00000C042FFD5B805FD530F5795889400C083
:1013B00000C000C0002CD5B806FD530F00C000C00F
:1013C000002C00C000C0C5B800C000C000C000C0F4
:1013D00000C041FFD5B85795889407FD530F00C052
:1013E00000C000C0002CD5B85795889400C000C03C
:1013F000002C00C000C0C5B800C000C000C000C0C4
:1014000000C040FFD5B8E10FF11D889400C000C0B6
:1014100000C000C0D5B800C000C0002C20F021E002
:101420002A95F1F721F021E02A95F1F70894C5B843
:1014300000C000C000C000C000C057FFD5B8318157
:101440006627889400C000C000C0002CD5B83111B8
:10145000370F00C000C0002C00C000C0C5B800C0DD
:1014600000C000C000C000C056FFD5B808F43FEF70
:10147000889400C000C000C000C0D5B8F0FC630F65
:1014800000C000C0002C00C000C0C5B800C000C033
:1014900000C000C000C055FFD5B867958894F1FC26
:1014A000630F00C000C000C0002CD5B867958894B9
:1014B00000C000C0002C00C000C0C5B800C000C003
:1014C00000C000C000C054FFD5B8F2FC630F6795A0
:1014D000889400C000C000C0002CD5B8F3FC630F96
:1014E00000C000C0002C00C000C0C5B800C000C0D3
:1014F00000C000C000C053FFD5B867958894F4FCC5
:10150000630F00C000C000C0002CD5B86795889458
:1015100000C000C0002C00C000C0C5B800C000C0A2
:1015200000C000C000C052FFD5B8F5FC630F67953E
:10153000889400C000C000C0002CD5B8F6FC630F32
:1015400000C000C0002C00C000C0C5B800C000C072
:1015500000C000C000C051FFD5B867958894F7FC63
:10156000630F00C000C000C0002CD5B867958894F8
:1015700000C000C0002C00C000C0C5B800C000C042
:1015800000C000C000C050FFD5B800C000C0002C93
:1015900020F021E02A95F1F721F021E02A95F1F7DA
:1015A0000894D5B800C000C0002C20F021E02A9596
:1015B000F1F721F021E02A95F1F70894109709F04E
:1015C000A3CD2091370330913803409139035091D6
:1015D0003A0386E390E0BC01869EC001879E900D91
:1015E000969E900D1124892F992786958695A0E0C7
:1015F000B0E0820F931FA41FB51F80933703909311
:101600003803A0933903B0933A0378940E94DF150E
:10161000D50150967C936E931F972E960FB6F89433
:10162000DEBF0FBECDBFCF91DF911F910F91FF9015
:10163000EF90DF90CF90BF90AF909F908F907F9072
:101640006F905F904F900895EF92FF920F93DF930A
:10165000CF9300D00F92CDB7DEB7AB0119821A82BB
:101660001B829E012F5F3F4FB90100E0EE24FF2453
:101670000E9405080F900F900F90CF91DF910F916E
:10168000FF90EF900895EF92FF920F9301E0EE2408
:10169000FF240E9405080F91FF90EF900895EF92AC
:1016A000FF920F9300E0EE24FF240E9405080F91A3
:1016B000FF90EF900895DA01FC0120E030E00DC0CA
:1016C0008C91808311968C911197818312968C91C5
:1016D000129782832F5F3F4F33962617370784F385
:1016E0000895CF92DF92EF92FF920F931F93CF93C3
:1016F000DF938C017B011216130624F06A01C0E00F
:10170000D0E002C06901EA01D801ED91FC910480AA
:10171000F581E02DC8010995CE01880F991F8C0F26
:101720009D1F8E0D9F1DF80193838283C586D686EB
:10173000C801DF91CF911F910F91FF90EF90DF9043
:10174000CF9008952F923F924F925F926F927F9227
:101750008F929F92AF92BF92CF92DF92EF92FF92C1
:101760000F931F93DF93CF9300D000D000D0CDB75D
:10177000DEB76C8300916F0210917002862E99245F
:10178000AA24BB24CE0104969E838D8351C0D80128
:10179000ED91FC9111972280338012966D907C9090
:1017A00013971D964D905C901E9719821A821B828A
:1017B000BC81BB2381F168017E010894E11CF11C0E
:1017C000F601268161852223D9F06623C9F070E0F5
:1017D00080E090E06F5F7F4F8F4F9F4F30E040E0A1
:1017E00050E02F5F3F4F4F4F5F4F0E94281CA501D5
:1017F00094010E94281CBC0188279927D7016C936B
:101800000894C11CD11C0894E11CF11CED81FE81DF
:10181000EE16FF06A9F6C801B301A2019E012F5FD3
:101820003F4FF1010995D80114960D911C91159720
:101830000115110509F0ABCF26960FB6F894DEBF5F
:101840000FBECDBFCF91DF911F910F91FF90EF9011
:10185000DF90CF90BF90AF909F908F907F906F90D0
:101860005F904F903F902F9008952F923F924F920C
:101870005F926F927F928F929F92AF92BF92CF9220
:10188000DF92EF92FF920F931F93DF93CF9300D0DD
:1018900000D000D0CDB7DEB71B014C8300916F02A2
:1018A00010917002842E9924AA24BB24CE010496A0
:1018B0009E838D834DC0D801ED91FC91119740809E
:1018C00051801D966D907C901E9719821A821B8202
:1018D000BC81BB2381F168017E010894E11CF11CED
:1018E000F601268161852223D9F06623C9F070E0D4
:1018F00080E090E06F5F7F4F8F4F9F4F30E040E080
:1019000050E02F5F3F4F4F4F5F4F0E94281CA501B3
:1019100094010E94281CBC0188279927D7016C9349
:101920000894C11CD11C0894E11CF11CED81FE81BE
:10193000EE16FF06A9F6C801B101A3019E012F5FB3
:101940003F4FF2010995D80114960D911C911597FE
:101950000115110509F0AFCF26960FB6F894DEBF3A
:101960000FBECDBFCF91DF911F910F91FF90EF90F0
:10197000DF90CF90BF90AF909F908F907F906F90AF
:101980005F904F903F902F9008958FEF80936E025D
:1019900008951F93FC01DB01808171811281482F22
:1019A0004F71440F440F440F642F25E5629F612D52
:1019B0001124282F30E087FD24C0C9018072907067
:1019C00026FD0CC0892B29F4562F509580E0462F18
:1019D00011C0462F4B5A80E05BEA0CC0892B61F4A2
:1019E000242F3AEA239F212D11245BEA521B462F14
:1019F000455580E030E02AC080E0462F4095362FE4
:101A000011C0C9018072907026FD13C0892B61F44A
:101A100080E0242F3AEA239F212D11244BEA421B18
:101A2000322F3B5A50E012C080E0362F3095562FAF
:101A30000CC0892B29F4562F5B5A80E03BEA04C086
:101A4000562F555580E035E5361B40E07F3F09F4C1
:101A50001BC0552321F0579F512D09F05F5F442390
:101A600021F0479F412D09F04F5F332321F0379F2D
:101A7000312D09F03F5F1124272F2095229F212D22
:101A80001124520F420F320F1F3F09F41AC020E0F9
:101A9000112321F0119F212D09F02F5F552321F0F3
:101AA000529F512D09F05F5F442321F0429F412D49
:101AB00009F04F5F332321F0329F312D09F03F5F52
:101AC00011245C9311964C93119712963C931F919D
:101AD000089581E08093B802609395021092B60257
:101AE0001092B70208952091940230E08091930201
:101AF000281B3109C90108954091930280919402F5
:101B0000481718F02FEF3FEF0AC0E42FF0E0ED5830
:101B1000FD4F8081282F30E04F5F40939302C90131
:101B20000895E091930280919402E81718F0EFEF86
:101B3000FFEF06C0F0E0ED58FD4F8081E82FF0E0A8
:101B4000CF01089508951092BC021092BB0288EE56
:101B500093E0A0E0B0E08093BD029093BE02A0931A
:101B6000BF02B093C00289ED91E09093BA028093D6
:101B7000B9020895CF92DF92EF92FF920F931F93D5
:101B8000CF93DF937C016B018A018091B802882397
:101B9000A1F0C0E0D0E00DC0D701ED91FC91D601DD
:101BA000AC0FBD1F0190F081E02DC7016C9109952C
:101BB0002196C017D10780F304C0CB01642F0E9487
:101BC000EC0EC801DF91CF911F910F91FF90EF9024
:101BD000DF90CF900895DF93CF930F92CDB7DEB70C
:101BE000FC0169838091B8028823C9F08091B70213
:101BF000803238F081E090E09383828320E030E00F
:101C000015C08091B602E82FF0E0EA56FD4F9981A9
:101C100090838F5F8093B6028093B70205C0CE0198
:101C2000019661E00E94EC0E21E030E0C9010F90C6
:101C3000CF91DF9108950F93062F8091950266E969
:101C400072E04091B70221E00E94970E1092B60216
:101C50001092B7021092B8020F91089561E00E94AD
:101C60001B0E0895413208F040E2862F63E772E0D0
:101C70000E944E0E1092930280939402089521E0E8
:101C80000E94320E089510929302109294021092C4
:101C9000B6021092B7020E9498100895382F413270
:101CA00010F040E042C08091C5028823E1F791E046
:101CB0009093C5022093C7028FEF80933203109256
:101CC000ED0241504093EE024F5F9093C602809127
:101CD000C602330F832B8093C6028091C8028130E5
:101CE00041F41092C8028091C6028093BB0085EC3B
:101CF00001C085EE8093BC008091C5028130E1F384
:101D00008091ED02841710F44091ED0220E030E064
:101D10000AC0FB01E20FF31FD901A353BD4F8C9101
:101D200080832F5F3F4F2417A0F3842F08950F93D4
:101D30001F93582F122F413210F081E04AC080913A
:101D4000C5028823E1F782E08093C5020093C702B1
:101D50008FEF809332031092ED024093EE02ADECD0
:101D6000B2E0FB0102C081918D938E2F861B8417F8
:101D7000D0F31092C6028091C602550F852B809336
:101D8000C6028091C802813041F41092C80280914D
:101D9000C6028093BB0085EC01C085EE8093BC0039
:101DA000112321F08091C5028230E1F3809132034A
:101DB0008F3F11F480E00DC080913203803211F426
:101DC00082E007C080913203803311F084E001C0CB
:101DD00083E01F910F910895482F613210F081E048
:101DE00008958091C502843011F082E008956093D7
:101DF0001003AFEEB2E0842F9C01F90102C0819183
:101E00008D938E2F841B8617D0F380E008951F9248
:101E10000F920FB60F9211242F933F934F935F931E
:101E20006F937F938F939F93AF93BF93EF93FF93A2
:101E30008091B90090E0887F90708036910509F418
:101E4000F2C081369105CCF58832910509F47BC04A
:101E500089329105B4F48031910509F46FC0813164
:101E600091053CF4009709F447C1089709F04FC168
:101E700065C08831910509F466C0809709F047C1B3
:101E800082C08034910509F4A4C08134910544F4E2
:101E90008033910509F482C0C89709F038C189C020
:101EA0008035910509F489C08835910509F496C0FB
:101EB0008834910509F02BC1AEC08839910509F429
:101EC00013C189399105ECF48837910509F4ABC049
:101ED000893791054CF48836910509F4A4C0803700
:101EE000910509F014C19FC08838910509F4FCC020
:101EF0008039910509F49DC08038910509F007C12A
:101F000098C0803B910509F4C6C0813B91054CF413
:101F1000803A910509F49FC0883A910509F0F7C00D
:101F2000BAC0803C910509F4E3C0883C910509F4EE
:101F3000DFC0883B910509F0EAC0C2C08091C602AB
:101F40008093BB00CFC09091ED028091EE02981774
:101F500068F49091ED02E92FF0E0E353FD4F8081AA
:101F60008093BB009F5F9093ED02BCC08091C7023D
:101F7000882309F44BC085ED8093BC008091BC00A0
:101F800084FDFCCFC2C080E28093320385ED809354
:101F9000BC008091BC0084FDFCCFB7C080E380937F
:101FA000320385ED8093BC008091BC0084FDFCCFA2
:101FB000ACC088E3809332039BC08091ED02909186
:101FC000BB00E82FF0E0E353FD4F90838F5F8093D9
:101FD000ED029091ED028091EE0282C08091ED02BF
:101FE0009091BB00E82FF0E0E353FD4F90838F5FAB
:101FF0008093ED028091C702882341F085ED8093A4
:10200000BC008091BC0084FDFCCF7FC081E0809348
:10201000C80284EA6EC085ED8093BC008091BC004C
:1020200084FDFCCF72C083E08093C502109231031F
:1020300059C080913103803208F056C0809131033D
:102040009091BB00E82FF0E0EF5EFC4F90838F5F34
:102050008093310347C080913103803230F4E091A6
:102060003103F0E0EF5EFC4F108285ED8093BC0001
:102070008091BC0084FDFCCF1092C50260913103B9
:10208000E091CB02F091CC0281E193E070E0099500
:10209000109231032DC084E08093C50210920F038B
:1020A00010921003E091C902F091CA020995809143
:1020B0001003882329F481E0809310031092EF022B
:1020C00090910F03E92FF0E0E151FD4F8081809363
:1020D000BB009F5F90930F0390910F0380911003BB
:1020E000981710F485EC01C085E88093BC000FC000
:1020F00085EC8093BC0009C01092320385ED80937B
:10210000BC008091BC0084FDFCCF1092C502FF9101
:10211000EF91BF91AF919F918F917F916F915F915F
:102120004F913F912F910F900FBE0F901F901895D8
:102130001092C50281E08093C7021092C80282E12A
:1021400061E00E94641783E161E00E946417E9EB9B
:10215000F0E080818E7F808380818D7F808388E422
:102160008093B80085E48093BC000895682F89EBC4
:1021700092E00E94EB0D0895EF92FF920F931F9350
:10218000FC01F62EE72E09EB12E060816062C801C7
:1021900070E00E94690D82E10E94B6108F2D0E94AE
:1021A000B6108E2D0E94B610C8010E942E0E1F91EF
:1021B0000F91FF90EF9008950F931F93CF93DF93AC
:1021C000EC01162F603110F080E028C0683010F468
:1021D00002E102C0185003E16881606289EB92E07D
:1021E00070E00E94690D802F0E94B61089EB92E08A
:1021F0000E942E0E6881606289EB92E070E041E0FF
:1022000050E00E943F0E89EB92E00E947C0D90E02E
:1022100002C0959587951A95E2F78170DF91CF916D
:102220001F910F910895FF920F931F93CF93DF9308
:10223000EC01162FF42E603108F04AC0683010F41B
:102240000CE002C018500DE06881606289EB92E0FA
:1022500070E00E94690D802F0E94B61089EB92E019
:102260000E942E0E6881606289EB92E070E041E08E
:1022700050E00E943F0E89EB92E00E947C0D282FD7
:1022800081E0F81651F481E090E002C0880F991FB8
:102290001A95E2F7122F182B0AC081E090E002C0D5
:1022A000880F991F1A95E2F7182F1095122368814D
:1022B000606289EB92E070E00E94690D802F0E94BD
:1022C000B610812F0E94B61089EB92E00E942E0E6C
:1022D000DF91CF911F910F91FF900895EF92FF92A0
:1022E0000F931F93CF93DF93EC01162FE42E6031F1
:1022F00008F04EC0683020F492E1F92E04E104C0E9
:10230000185083E1F82E05E16881606289EB92E064
:1023100070E00E94690D802F0E94B61089EB92E058
:102320000E942E0E6881606289EB92E070E041E0CD
:1023300050E00E943F0E89EB92E00E947C0D282F16
:1023400081E0E81651F481E090E002C0880F991F07
:102350001A95E2F7122F182B0AC081E090E002C014
:10236000880F991F1A95E2F7182F1095122368818C
:10237000606289EB92E070E00E94690D8F2D0E94EF
:10238000B610812F0E94B61089EB92E00E942E0EAB
:10239000DF91CF911F910F91FF90EF900895EF92F1
:1023A000FF920F931F938C0129EBE22E22E0F22E75
:1023B000FC0160816062C70170E00E94690D82E1EA
:1023C0000E94B610C7010E942E0EF8016081606263
:1023D000C70170E042E050E00E943F0EC7010E943A
:1023E0007C0D082FC7010E947C0D382F20E010E0E3
:1023F000022B132BC8011F910F91FF90EF900895AE
:10240000FF920F931F93CF93DF93EC01162FF42EBF
:10241000603108F049C0683010F400E002C0185084
:1024200001E06881606289EB92E070E00E94690DD2
:10243000802F0E94B61089EB92E00E942E0E6881D8
:10244000606289EB92E070E041E050E00E943F0E54
:1024500089EB92E00E947C0D282FFF2051F481E04F
:1024600090E002C0880F991F1A95E2F7122F182BDF
:102470000AC081E090E002C0880F991F1A95E2F728
:10248000182F109512236881606289EB92E070E04A
:102490000E94690D802F0E94B610812F0E94B610F5
:1024A00089EB92E00E942E0EDF91CF911F910F9148
:1024B000FF900895CF93DF93EC01683008F067E058
:1024C000688389EB92E00E94430E6881606289EB29
:1024D00092E070E00E94690D80E00E94B6108FEFDC
:1024E0000E94B61089EB92E00E942E0E6881606215
:1024F00089EB92E070E00E94690D81E00E94B610C5
:102500008FEF0E94B61089EB92E00E942E0EDF91B1
:10251000CF91089560E00E945A120895FC01138241
:10252000128289EE91E091838083128E148A8FE06B
:1025300084838EE085838DE086838CE087838BE0C7
:1025400080878AE0818789E08287178681E0808B97
:1025500082E0818B83E0828B84E0838B0895CF922D
:10256000DF92FF920F931F93CF93DF932BE1C22E45
:10257000D12CC80ED91E8C018FE1F82EC0E0D0E01E
:10258000C601F80167850E94DC1090E00C2E02C0A5
:10259000880F991F0A94E2F78095F82221960F5F21
:1025A0001F4FC530D10561F78F2DDF91CF911F915E
:1025B0000F91FF90DF90CF900895FC01828D8F3FA7
:1025C00029F0CF014B960E9400120895862F642FA8
:1025D0000E9425170895CF92DF92EF92FF920F93FA
:1025E0001F93062FEBE1CE2ED12CC80ED91E10E082
:1025F000A801569547955695479561E0E62EF12C32
:102600004E255F254170C60168E00E946E11A80149
:10261000569547954E255F254170C60167E00E949B
:102620006E110E251F250170C60166E0402F0E9425
:102630006E111F910F91FF90EF90DF90CF90089552
:10264000FC01828D8F3F29F0CF014B960E946E11C5
:102650000895862F642F0E94641708950F931F9387
:102660008C01F801668140E00E94201381E090E037
:102670000E945E16C801F801668141E00E942013A5
:1026800081E090E00E945E16C801F801668140E09A
:102690000E94201384E690E00E945E161F910F9125
:1026A0000895CF92DF92EF92FF920F931F93CF93F3
:1026B000DF93F82EE92E282F392FC9018C01C0E0B5
:1026C000D0E0C62EDD248F2D9E2DF801678141E0DC
:1026D0000E94DD12A6010C2E02C0559547950A9462
:1026E000E2F741708F2D9E2DF80167810E94201323
:1026F00021960F5F1F4FC830D10529F78F2D9E2DD2
:102700000E942E13DF91CF911F910F91FF90EF90B8
:10271000DF90CF900895AF92BF92CF92DF92EF9269
:10272000FF920F931F93CF93DF936C01E62EFC0172
:10273000828D8F3F09F46FC0FBE1AF2EB12CAC0C42
:10274000BD1CC5010E94CF11AC01D601E0E0F0E054
:1027500001E010E06E2D70E017962C911797C1E004
:10276000D0E0C801022E02C0880F991F0A94E2F738
:102770008095909584239523AB010E2E02C055952C
:1027800047950A94E2F74170507002C0440F551FFC
:102790002A95E2F7482B592B31961196E430F10532
:1027A000D9F68E01F601068002C0000F111F0A94AF
:1027B000E2F70095109504231523C501B8010E9486
:1027C000BC1081E090E00E945E167E01F60106805A
:1027D00002C0EE0CFF1C0A94E2F7E02AF12AC501C0
:1027E000B7010E94BC1081E090E00E945E16F601E5
:1027F000068002C0CC0FDD1F0A94E2F7C095D09589
:10280000EC22FD22C501B7010E94BC1084E690E0D5
:102810000E945E1621C08601C0E0D0E0A62EBB2437
:10282000C601F801678141E00E94DD12A5010C2E6E
:1028300002C0559547950A94E2F74170C601F80128
:1028400067810E94201321960F5F1F4FC430D1056E
:1028500039F7C6010E942E13DF91CF911F910F917E
:10286000FF90EF90DF90CF90BF90AF9008951F93AF
:10287000CF93DF93EC01162F6C810E9420136D81A2
:102880006F3F21F0CE0140E00E9420138C8984FF2D
:1028900005C0CE01612F0E9451130EC0612F70E060
:1028A000A4E075956795AA95E1F7CE010E948B1378
:1028B000CE01612F0E948B13DF91CF911F9108955C
:1028C00041E00E94371481E090E0089540E00E94CA
:1028D00037140895FC016589862F8460858B6C60B0
:1028E000CF010E9466140895DF93CF93CDB7DEB772
:1028F00028970FB6F894DEBF0FBECDBF9C01FE0136
:102900003196ADEEB1E088E00D9001928150E1F793
:10291000F901808D841710F4482F4150E42FF0E026
:10292000EE0FFF1FEC0FFD1F8181680F6068C9016A
:102930000E94661428960FB6F894DEBF0FBECDBF76
:10294000CF91DF91089561E00E94661480ED97E0D9
:102950000E945E1608959F92AF92BF92CF92DF922F
:10296000EF92FF920F931F93CF93DF93EC01A42E6E
:10297000922E8A8D8F3F09F452C089EB92E00E941B
:10298000430E1BE1E12EF12CEC0EFD1EC7010E944F
:102990008A12C70168E041E00E940012C70166E0A8
:1029A00041E00E940012C70167E041E00E9400126E
:1029B000CE0167E00E94EB126D81662321F0C70112
:1029C00041E00E940012C7016C8141E00E940012A8
:1029D000C7016E8141E00E9400126E018E01BB248E
:1029E000C701F801678141E00E940012B3940F5FB4
:1029F0001F4FF4E0BF16A1F710E0C701F60167858D
:102A000040E00E940012C701F601678541E00E9484
:102A100013111F5F0894C11CD11C153071F7F1E030
:102A2000FA1518F48C8988608C8BA88E198E9920E1
:102A300031F081E0A81619F48C8984608C8B80E5D4
:102A400093EC0E945E16CE016C8140E00E94201340
:102A5000CE016E8140E00E9420136D816F3F21F016
:102A6000CE0140E00E9420136C8964FD1DC0CE01A0
:102A700063E00E948B1384E991E10E945E16CE010F
:102A800063E00E948B1384E991E10E945E16CE01FF
:102A900063E00E948B1386E990E00E945E16CE01EF
:102AA00062E00E948B1316C06062CE010E94661421
:102AB00084E991E10E945E166C896062CE010E94F9
:102AC000661486E990E00E945E166C896062CE0111
:102AD0000E9466146C896062CE010E94661484E0D4
:102AE0008D8BCE010E946A14CE010E94A31482E055
:102AF0008E8BCE0166E00E946614DF91CF911F910C
:102B00000F91FF90EF90DF90CF90BF90AF909F908C
:102B100008951F920F920FB60F9211242F933F9397
:102B20008F939F93AF93BF93809137039091380316
:102B3000A0913903B0913A0330913B030196A11D56
:102B4000B11D232F2D5F2D3720F02D570196A11D8C
:102B5000B11D20933B038093370390933803A093D8
:102B60003903B0933A038091330390913403A091D9
:102B70003503B09136030196A11DB11D8093330337
:102B800090933403A0933503B0933603BF91AF9174
:102B90009F918F913F912F910F900FBE0F901F909B
:102BA00018958FB7F89420913703309138034091EE
:102BB000390350913A038FBFB901CA0108959FB7F5
:102BC000F8942091330330913403409135035091B0
:102BD000360386B5A89B06C08F3F21F02F5F3F4F7D
:102BE0004F4F5F4F9FBF542F432F322F2227280F65
:102BF000311D411D511D82E0220F331F441F551FFF
:102C00008A95D1F7B901CA0108959B01AC017FB73C
:102C1000F8948091330390913403A0913503B091DF
:102C2000360366B5A89B05C06F3F19F00196A11D3C
:102C3000B11D7FBFBA2FA92F982F8827860F911D0E
:102C4000A11DB11D62E0880F991FAA1FBB1F6A95C5
:102C5000D1F7BC012DC0FFB7F89480913303909158
:102C60003403A0913503B0913603E6B5A89B05C0A7
:102C7000EF3F19F00196A11DB11DFFBFBA2FA92F7B
:102C8000982F88278E0F911DA11DB11DE2E0880F9E
:102C9000991FAA1FBB1FEA95D1F7861B970B885E69
:102CA0009340C8F2215030404040504068517C4F22
:102CB000211531054105510571F60895019739F047
:102CC000880F991F880F991F02970197F1F70895B0
:102CD000789484B5826084BD84B5816084BD85B5F7
:102CE000826085BD85B5816085BDEEE6F0E08081BE
:102CF00081608083E1E8F0E01082808182608083DF
:102D0000808181608083E0E8F0E080818160808361
:102D1000E1EBF0E0808184608083E0EBF0E0808193
:102D200081608083EAE7F0E0808184608083808135
:102D300082608083808181608083808180688083DD
:102D40001092C1000895982F8E3008F09E50977011
:102D50008091C6018295880F880F807C892B809393
:102D60007C0080917A00806480937A0080917A0060
:102D700086FDFCCF2091780040917900942F80E06F
:102D800030E0282B392BC90108951F93CF93DF938F
:102D9000182FEB0161E00E942517209709F44AC023
:102DA000CF3FD10509F449C0E12FF0E0E253FF4FD6
:102DB00084918330C1F0843028F4813051F0823026
:102DC000B1F50CC0863019F1873049F1843079F5BE
:102DD00014C084B5806884BDC7BD33C084B580622B
:102DE00084BDC8BD2EC08091800080688093800023
:102DF000D0938900C093880024C0809180008062B5
:102E000080938000D0938B00C0938A001AC0809179
:102E1000B00080688093B000C093B30012C080916E
:102E2000B00080628093B000C093B4000AC0C03884
:102E3000D1051CF4812F60E002C0812F61E00E9467
:102E40006417DF91CF911F910895CF93DF93482F9F
:102E500050E0CA0186549F4FFC0134914A555F4FA0
:102E6000FA018491882369F190E0880F991FFC0191
:102E7000E857FF4FA591B491FC01EE56FF4FC59165
:102E8000D491662351F42FB7F8948C91932F909599
:102E900089238C93888189230BC0623061F42FB71A
:102EA000F8948C91932F909589238C938881832B10
:102EB00088832FBF06C09FB7F8948C91832B8C9387
:102EC0009FBFDF91CF910895482F50E0CA018253F0
:102ED0009F4FFC012491CA0186549F4FFC0194919D
:102EE0004A555F4FFA013491332309F440C022233D
:102EF00051F1233071F0243028F42130A1F0223038
:102F000011F514C02630B1F02730C1F02430D9F4C7
:102F100004C0809180008F7703C0809180008F7DF6
:102F20008093800010C084B58F7702C084B58F7DF8
:102F300084BD09C08091B0008F7703C08091B0003C
:102F40008F7D8093B000E32FF0E0EE0FFF1FEE5671
:102F5000FF4FA591B4912FB7F894662321F48C917B
:102F60009095892302C08C91892B8C932FBF089553
:102F700008951F920F920FB60F9211242F933F9333
:102F80004F938F939F93EF93FF938091C00082FDA7
:102F90001DC04091C60020917C0330917D032F5FBE
:102FA0003F4F2F73307080917E0390917F032817DD
:102FB000390771F0E0917C03F0917D03E45CFC4FF4
:102FC000408330937D0320937C0302C08091C60030
:102FD000FF91EF919F918F914F913F912F910F9082
:102FE0000FBE0F901F901895E091D003F091D10380
:102FF000E05CFF4F8191919120813181805C9F4FF6
:10300000821B930B60E470E00E94471C892B11F037
:103010000E94B81708951F920F920FB60F921124B5
:103020002F933F938F939F93EF93FF932091C00330
:103030003091C1038091C2039091C30328173907CF
:1030400031F48091C1008F7D8093C10014C0E09164
:10305000C203F091C303E058FC4F20818091C2036A
:103060009091C30301968F7390709093C3038093E4
:10307000C2032093C600FF91EF919F918F913F91E2
:103080002F910F900FBE0F901F901895DC011C968A
:10309000ED91FC911D97E05CFF4F81919191208112
:1030A0003181805C9F4F821B930B60E470E00E9433
:1030B000471C0895DC011C96ED91FC911D97E05C86
:1030C000FF4F20813181E054F040DF01AE5BBF4F04
:1030D0008D919C9111972817390719F42FEF3FEF25
:1030E00007C08D919C91E80FF91F8081282F30E057
:1030F000C9010895DC011C96ED91FC911D97E05CDF
:10310000FF4F20813181E054F040DF01AE5BBF4FC3
:103110008D919C9111972817390719F42FEF3FEFE4
:1031200010C08D919C911197E80FF91F20818D910E
:103130009C91119701968F73907011969C938E932A
:1031400030E0C9010895DC0191968C919197882314
:1031500039F05496ED91FC915597808186FFF9CF17
:1031600091961C920895CF93DF93EC01EE85FF8535
:10317000E05CFF4F20813181E054F0402F5F3F4FF2
:103180002F733070DF01AE5BBF4F8D919C91119713
:1031900028173907D1F3E05CFF4F80819181E0541B
:1031A000F040E80FF91F6083EE85FF85E05CFF4F7C
:1031B00031832083EE89FF89208181E090E00F8CAC
:1031C00002C0880F991F0A94E2F7282B208381E020
:1031D00089A3EC89FD8980818064808381E090E00F
:1031E000DF91CF9108951092C7031092C60388EE25
:1031F00093E0A0E0B0E08093C8039093C903A0934C
:10320000CA03B093CB0389EF91E09093C5038093F9
:10321000C4038CE393E09093D1038093D00380E8C0
:1032200093E09093D3038093D20385EC90E0909346
:10323000D5038093D40384EC90E09093D7038093DC
:10324000D60380EC90E09093D9038093D80381EC6F
:1032500090E09093DB038093DA0382EC90E090930C
:10326000DD038093DC0386EC90E09093DF03809392
:10327000DE0384E08093E00383E08093E10387E052
:103280008093E20385E08093E30381E08093E4038D
:1032900008950895CF93DF930E9468160E944919FC
:1032A0000E947507C4EFD7E10E94ED042097E1F377
:1032B0000E94F417F9CFFC0120E030E080818823E0
:1032C00011F421E030E0C9010895FC0181E0808320
:1032D0000895CF92DF92EF92FF920F931F93CF93B7
:1032E000DF937C016B018A01C0E0D0E00FC0D60102
:1032F0006D916D01D701ED91FC910190F081E02D70
:10330000C7010995C80FD91F0150104001151105BB
:1033100071F7CE01DF91CF911F910F91FF90EF9048
:10332000DF90CF900895EF92FF920F931F93CF936A
:10333000DF937C018B01C0E0D0E0F8010F5F1F4FED
:103340006491662359F0D701ED91FC910190F081D1
:10335000E02DC7010995C80FD91FEFCFCE01DF912E
:10336000CF911F910F91FF90EF900895CF93DF932E
:10337000EC016115710519F420E030E00FC0DB01AC
:103380000D900020E9F71197A61BB70BE881F98192
:103390000280F381E02DAD0109959C01C901DF9107
:1033A000CF9108954F925F927F928F929F92AF92AA
:1033B000BF92CF92DF92EF92FF920F931F93DF9312
:1033C000CF93CDB7DEB7A1970FB6F894DEBF0FBE8F
:1033D000CDBF2C01742ECB01223008F42AE019A2B3
:1033E00031E2C32ED12CCC0EDD1E822E9924AA24CC
:1033F000BB24672D752FA50194010E945A1C7901E9
:103400008A01C801B701A50194010E94281C472D1B
:10341000461B0894C108D1084A3014F4405D01C02D
:10342000495CF6014083E114F1040105110521F026
:103430007E2C5F2DC801DDCFC201B6010E94B619F6
:10344000A1960FB6F894DEBF0FBECDBFCF91DF912E
:103450001F910F91FF90EF90DF90CF90BF90AF90B2
:103460009F908F907F905F904F900895DC01211581
:10347000310541F4ED91FC910190F081E02D642F34
:10348000099508950E94D2190895EF92FF920F9323
:103490001F939A01E62EFF2400E010E0B801A70177
:1034A0000E94361A1F910F91FF90EF900895CF92CE
:1034B000DF92EF92FF920F931F93CF93DF93EC0174
:1034C0006A017B012115310541F4E881F981019000
:1034D000F081E02D642F09951FC02A303105D1F409
:1034E00077FF17C0E881F9810190F081E02D6DE24E
:1034F00009958C0144275527BA014C195D096E09BD
:103500007F09CE012AE00E94D2199801280F391FA5
:1035100004C02AE00E94D2199C01C901DF91CF9119
:103520001F910F91FF90EF90DF90CF9008950E9430
:10353000B61908952F923F924F925F926F927F92A9
:103540008F929F92AF92BF92CF92DF92EF92FF92B3
:103550000F931F93DF93CF93CDB7DEB73B014C01A1
:1035600019012A016D897E898F89988D6A197B09D5
:103570008C099D09621A730A840A950AA4019301B1
:103580000E94281CE218F30804091509A8019701F4
:103590000E947C1C2A0D3B1D4C1D5D1DB901CA01FA
:1035A000CF91DF911F910F91FF90EF90DF90CF901F
:1035B000BF90AF909F908F907F906F905F904F9053
:1035C0003F902F900895BCD088F09F5790F0B92F6E
:1035D0009927B751A0F0D1F0660F771F881F991F68
:1035E0001AF0BA95C9F712C0B13081F0C3D0B1E07A
:1035F0000895C0C0672F782F8827B85F39F0B93F8A
:10360000CCF3869577956795B395D9F73EF4909569
:103610008095709561957F4F8F4F9F4F0895E894E7
:1036200009C097FB3EF490958095709561957F4F0A
:103630008F4F9F4F9923A9F0F92F96E9BB279395B8
:10364000F695879577956795B795F111F8CFFAF4C8
:10365000BB0F11F460FF1BC06F5F7F4F8F4F9F4FF9
:1036600016C0882311F096E911C0772321F09EE857
:10367000872F762F05C0662371F096E8862F70E0BD
:1036800060E02AF09A95660F771F881FDAF7880F97
:103690009695879597F90895990F0008550FAA0BED
:1036A000E0E8FEEF16161706E807F907C0F0121655
:1036B0001306E407F50798F0621B730B840B950B58
:1036C00039F40A2661F0232B242B252B21F40895AD
:1036D0000A2609F4A140A6958FEF811D811D08954A
:1036E00097F99F6780E870E060E008959FEF80ECB5
:1036F000089500240A941616170618060906089558
:1037000000240A9412161306140605060895092EBD
:103710000394000C11F4882352F0BB0F40F4BF2B2C
:1037200011F460FF04C06F5F7F4F8F4F9F4F08956C
:1037300057FD9058440F551F59F05F3F71F0479562
:10374000880F97FB991F61F09F3F79F08795089547
:10375000121613061406551FF2CF4695F1DF08C066
:10376000161617061806991FF1CF86957105610583
:1037700008940895E894BB2766277727CB0197F92B
:1037800008958ADF08F48FEF08950BD0C0CFB1DF22
:1037900028F0B6DF18F0952309F0A2CFA7CF1124A7
:1037A000EACFC6DFA0F3959FD1F3950F50E0551FE8
:1037B000629FF001729FBB27F00DB11D639FAA2786
:1037C000F00DB11DAA1F649F6627B00DA11D661FD5
:1037D000829F2227B00DA11D621F739FB00DA11DF6
:1037E000621F839FA00D611D221F749F3327A00DB0
:1037F000611D231F849F600D211D822F762F6A2F4C
:1038000011249F5750408AF0E1F088234AF0EE0FD0
:10381000FF1FBB1F661F771F881F91505040A9F7DD
:103820009E3F510570F05CCFA6CF5F3FECF3983E12
:10383000DCF3869577956795B795F795E7959F5F44
:10384000C1F7FE2B880F911D9695879597F90895DE
:10385000629FD001739FF001829FE00DF11D649F74
:10386000E00DF11D929FF00D839FF00D749FF00D00
:10387000659FF00D9927729FB00DE11DF91F639FA1
:10388000B00DE11DF91FBD01CF011124089597FB73
:10389000092E07260AD077FD04D049D006D0002093
:1038A0001AF4709561957F4F0895F6F7909581957C
:1038B0009F4F0895A1E21A2EAA1BBB1BFD010DC04C
:1038C000AA1FBB1FEE1FFF1FA217B307E407F507D0
:1038D00020F0A21BB30BE40BF50B661F771F881FAC
:1038E000991F1A9469F760957095809590959B0142
:1038F000AC01BD01CF01089597FB092E05260ED01E
:1039000057FD04D0D7DF0AD0001C38F450954095FD
:10391000309521953F4F4F4F5F4F0895F6F79095A3
:103920008095709561957F4F8F4F9F4F0895AA1B8B
:10393000BB1B51E107C0AA1FBB1FA617B70710F09A
:10394000A61BB70B881F991F5A95A9F780959095CC
:10395000BC01CD010895EE0FFF1F0590F491E02DFD
:063960000994F894FFCF6A
:103966002020202020202020202020202020202051
:10397600004265726B616E61004B656C6C65792007
:1039860059656C6C6F77004B656C6C657920526578
:1039960064004B656C6C657920426C7565004B65FF
:1039A6006C6C657920477265656E004B656C6C655D
:1039B6007920507572706C65004B656C6C6579206A
:1039C6005768697465004B656C6C6579206469613C
:1039D6006C005261696E626F77206368617365007F
:1039E6005261696E626F77206379636C6500467217
:1039F600616D652044656C6179004272696768741F
:103A06006E657373003200000080190127013201D0
:103A16003E014B0159016601720180018E019A0136
:103A26000B000101404001000000004F0B430BC892
:103A360000240B6E0200000000EB0DBA0D730D7C26
:103A46000D910DA20D0000000060146919000040E0
:103A5600001400540000000000B318691946187AD3
:063A6600185A18A3180015
:00000001FF
